:100000000C942A000C94211E0C94E41E0C944700BE
:100010000C9447000C9447000C9447000C94470044
:100020000C9447000C9447000C9447000C94470034
:100030000C9447000C9447000C9447000C94470024
:100040000C9447000C9447000C9447000C94470014
:100050000C94470011241FBECFE5D8E0DEBFCDBF12
:1000600011E0A0E6B0E0ECE0F2E402C005900D92F1
:10007000A237B107D9F711E0A2E7B1E001C01D92A4
:10008000AA37B107E1F70E94AB160C9404210C9437
:100090000000EF92FF920F931F937B018C0120E0F1
:1000A00030E040E05FE40E94F50388238CF0C80153
:1000B000B70120E030E040E05FE40E94C1010E940F
:1000C000B3049B01AC01205030404040504806C072
:1000D000C801B7010E94B3049B01AC01B901CA0178
:1000E0001F910F91FF90EF900895A0E0B0E0EBE733
:1000F000F0E00C948820DC012B01FA019C919230F5
:1001000008F439C1EB018881823008F433C194309E
:1001100069F4843009F02FC111969C91119789815F
:10012000981709F428C1A0E6B0E025C1843009F48D
:1001300021C18230A9F4923009F01DC19A01AD01AC
:1001400088E0EA010990AE01E90109929E0181501F
:10015000C1F7E201898111969C918923818308C1AD
:10016000923009F407C112962D903C901397EB0141
:100170008A819B811496AD90BD90CD90DC901797AD
:10018000EC80FD800E811F819101281B390BB90184
:1001900037FF04C066277727621B730B6032710537
:1001A0000CF061C0121613066CF537014801062EDB
:1001B00004C096948794779467940A94D2F721E0C8
:1001C00030E040E050E004C0220F331F441F551FB1
:1001D0006A95D2F721503040404050402E213F21B7
:1001E00040235123211531054105510521F021E01E
:1001F00030E040E050E079018A01E628F72808293C
:1002000019293CC0232BD1F1260E371E350146019A
:10021000062E04C096948794779467940A94D2F734
:1002200021E030E040E050E004C0220F331F441FC3
:10023000551F6A95D2F721503040404050402A2146
:100240003B214C215D21211531054105510521F04E
:1002500021E030E040E050E059016A01A628B728CB
:10026000C828D9280BC0821593052CF01C01AA249C
:10027000BB24650103C0EE24FF24870111969C91E5
:10028000D20111968C91981709F445C0992339F041
:10029000A80197012A193B094C095D0906C0A6016E
:1002A00095012E193F09400B510B57FD08C01182D3
:1002B0003382228224833583468357831DC081E0A5
:1002C00081833382228288279927DC01821B930B4A
:1002D000A40BB50B84839583A683B7830DC0220F2F
:1002E000331F441F551F24833583468357838281E0
:1002F000938101979383828324813581468157813D
:10030000DA01C9010197A109B1098F5F9F4FAF4F72
:10031000BF4328F30BC0918333822282EA0CFB1C7B
:100320000C1D1D1DE482F5820683178383E0808304
:10033000248135814681578157FF1AC0C901AA27F8
:1003400097FDA095BA2F81709070A070B0705695EF
:10035000479537952795822B932BA42BB52B848318
:100360009583A683B7838281938101969383828349
:10037000DF0101C0D201CD01CDB7DEB7E2E10C94BF
:10038000A420A0E2B0E0E7ECF1E00C9494206983B3
:100390007A838B839C832D833E834F835887E9E048
:1003A000EE2EF12CEC0EFD1ECE010196B7010E943F
:1003B0002B068E010F5E1F4FCE010596B8010E94DD
:1003C0002B068A8991E089278A8BC701B801AE0183
:1003D000475E5F4F0E9475000E945605A096E6E0BA
:1003E0000C94B020A0E2B0E0E8EFF1E00C9494208F
:1003F00069837A838B839C832D833E834F835887C5
:10040000F9E0EF2EF12CEC0EFD1ECE010196B701A6
:100410000E942B068E010F5E1F4FCE010596B8017C
:100420000E942B06C701B801AE01475E5F4F0E94D4
:1004300075000E945605A096E6E00C94B020A0E25C
:10044000B0E0E5E2F2E00C94882069837A838B8344
:100450009C832D833E834F835887CE010196BE0136
:10046000675F7F4F0E942B06CE010596BE016F5E2F
:100470007F4F0E942B069985923088F089898230BF
:10048000C8F0943019F4823051F404C0843029F457
:10049000923081F480E690E0C6C0923049F420E0CA
:1004A0009A858A89981321E02A87CE010996BBC0D4
:1004B000823049F420E09A858A89981321E02A8BBA
:1004C000CE014196B0C02D843E844F8458886D88FB
:1004D0007E888F88988CEE24FF248701AA24BB2471
:1004E000650140E050E060E070E0E0E0F0E0C10174
:1004F00081709070892BE9F0E60CF71C081D191D1E
:100500009A01AB012A0D3B1D4C1D5D1D80E090E062
:10051000A0E0B0E0E614F7040805190520F481E036
:1005200090E0A0E0B0E0BA01A901480F591F6A1F8E
:100530007B1FAA0CBB1CCC1CDD1C97FE08C081E0F5
:1005400090E0A0E0B0E0A82AB92ACA2ADB2A3196B6
:10055000E032F10549F0660C771C881C991C569412
:10056000479437942794C3CFFA85EA892B893C892D
:100570008B859C85280F391F2E5F3F4F17C0CA01FE
:1005800081709070892B61F016950795F794E79428
:1005900080E090E0A0E0B0E8E82AF92A0A2B1B2BC3
:1005A00076956795579547952F5F3F4F77FDE7CF36
:1005B0000CC0440F551F661F771F17FD4160EE0CDE
:1005C000FF1C001F111F21503040403090E05907A0
:1005D00090E0690790E4790760F32B8F3C8FDB0193
:1005E000CA018F779070A070B07080349105A1051A
:1005F000B10561F447FD0AC0E114F10401051105DC
:1006000029F0405C5F4F6F4F7F4F40781A8EFE1786
:1006100011F081E08A8F4D8F5E8F6F8F78A383E01A
:10062000898FCE0149960E945605A096E2E10C946E
:10063000A420A8E1B0E0EFE1F3E00C9490206983FE
:100640007A838B839C832D833E834F835887B9E0C5
:10065000EB2EF12CEC0EFD1ECE010196B7010E948F
:100660002B068E010F5E1F4FCE010596B8010E942A
:100670002B062985223008F47EC03989323010F4E7
:10068000B8017CC08A859A8989278A87243011F02D
:10069000223031F4231709F06EC060E670E06EC0BE
:1006A000343039F41D861E861F86188A1C861B86E8
:1006B00004C0323021F484E08987B7015FC02B8504
:1006C0003C858B899C89281B390B3C872B87ED84C3
:1006D000FE840F851889AD88BE88CF88D88CEA142F
:1006E000FB040C051D0540F4EE0CFF1C001F111F40
:1006F000215030403C872B8720E030E040E050E044
:1007000080E090E0A0E0B0E460E070E0EA14FB0478
:100710000C051D0540F0282B392B4A2B5B2BEA18C2
:10072000FB080C091D09B695A79597958795EE0CC2
:10073000FF1C001F111F6F5F7F4F6F31710531F775
:10074000DA01C9018F779070A070B0708034910584
:10075000A105B10561F427FD0AC0E114F10401050A
:10076000110529F0205C3F4F4F4F5F4F20782D87B8
:100770003E874F87588BBE01675F7F4FCB010E943A
:1007800056056896EAE00C94AC20A8E1B0E0EBECEA
:10079000F3E00C94942069837A838B839C832D836C
:1007A0003E834F83588789E0E82EF12CEC0EFD1E26
:1007B000CE010196B7010E942B068E010F5E1F4FDE
:1007C000CE010596B8010E942B068985823040F043
:1007D0008989823028F0C701B8010E94A30601C0B0
:1007E0008FEF6896E6E00C94B020A8E1B0E0EBEF64
:1007F000F3E00C94942069837A838B839C832D830C
:100800003E834F83588789E0E82EF12CEC0EFD1EC5
:10081000CE010196B7010E942B068E010F5E1F4F7D
:10082000CE010596B8010E942B068985823040F0E2
:100830008989823028F0C701B8010E94A30601C04F
:100840008FEF6896E6E00C94B020A8E1B0E0EBE210
:10085000F4E00C94942069837A838B839C832D83AA
:100860003E834F83588789E0E82EF12CEC0EFD1E65
:10087000CE010196B7010E942B068E010F5E1F4F1D
:10088000CE010596B8010E942B068985823040F082
:100890008989823028F0C701B8010E94A30601C0EF
:1008A00081E06896E6E00C94B020A8E0B0E0EBE5CB
:1008B000F4E00C9491209B01AC0183E08983DA0180
:1008C000C9018827B7FD83959927AA27BB27B82E8A
:1008D000211531054105510519F482E089833AC09B
:1008E0008823A9F0203080E0380780E0480780E8BE
:1008F000580729F460E070E080E09FEC30C0EE24FF
:10090000FF248701E21AF30A040B150B02C07901D8
:100910008A018EE1C82ED12CDC82CB82ED82FE8250
:100920000F831887C801B7010E94070501971816A1
:10093000190684F4082E04C0EE0CFF1C001F111FC2
:100940000A94D2F7ED82FE820F831887C81AD90A5B
:10095000DC82CB82BA82CE0101960E94560528968F
:10096000E9E00C94AD20ACE0B0E0E9EBF4E00C94ED
:10097000982069837A838B839C83CE010196BE0184
:100980006B5F7F4F0E942B068D81823061F1823038
:1009900050F1843021F48E81882351F12EC02F81B3
:1009A000388537FD20C06E812F3131051CF066235C
:1009B000F9F023C08EE190E0821B930B29853A85E4
:1009C0004B855C8504C056954795379527958A9544
:1009D000D2F76623B1F050954095309521953F4F61
:1009E0004F4F5F4F0EC020E030E040E050E009C0C4
:1009F0002FEF3FEF4FEF5FE704C020E030E040E033
:100A000050E8B901CA012C96E2E00C94B420EF92B0
:100A1000FF920F931F937B018C0180E0E81680E02A
:100A2000F80681E0080780E0180788F48FEFE816E1
:100A3000F1040105110531F028F088E090E0A0E014
:100A4000B0E017C080E090E0A0E0B0E012C080E02D
:100A5000E81680E0F80680E0080781E0180728F033
:100A600088E190E0A0E0B0E004C080E190E0A0E088
:100A7000B0E020E230E040E050E0281B390B4A0BA8
:100A80005B0B04C016950795F794E7948A95D2F707
:100A9000F701E859FF4F8081281B310941095109AD
:100AA000C9011F910F91FF90EF900895DF92EF928F
:100AB000FF920F931F93FC01E480F580068117815C
:100AC000D1808081823048F480E090E0A0E1B0E005
:100AD000E82AF92A0A2B1B2BA5C0843009F49FC0F1
:100AE000823021F4EE24FF24870105C0E114F104D3
:100AF0000105110519F4E0E0F0E096C06281738110
:100B00009FEF623879070CF05BC022E83FEF261BAD
:100B1000370B2A3131052CF020E030E040E050E086
:100B20002AC0B801A701022E04C076956795579593
:100B300047950A94D2F781E090E0A0E0B0E004C0CD
:100B4000880F991FAA1FBB1F2A95D2F70197A109E9
:100B5000B1098E219F21A023B1230097A105B105E2
:100B600021F081E090E0A0E0B0E09A01AB01282BF9
:100B7000392B4A2B5B2BDA01C9018F779070A0705B
:100B8000B07080349105A105B10539F427FF09C083
:100B9000205C3F4F4F4F5F4F04C0215C3F4F4F4F92
:100BA0005F4FE0E0F0E02030A0E03A07A0E04A0725
:100BB000A0E45A0710F0E1E0F0E079018A0127C0D3
:100BC0006038710564F5FB01E158FF4FD801C7019A
:100BD0008F779070A070B07080349105A105B10539
:100BE00039F4E7FE0DC080E490E0A0E0B0E004C07E
:100BF0008FE390E0A0E0B0E0E80EF91E0A1F1B1F93
:100C000017FF05C016950795F794E794319687E08E
:100C100016950795F794E7948A95D1F705C0EE24C9
:100C2000FF248701EFEFF0E06E2F67956627679549
:100C3000902F9F77D794DD24D7948E2F8695492FB8
:100C4000462B582F5D29B701CA011F910F91FF90C4
:100C5000EF90DF900895FC01DB01408151812281FA
:100C6000622F6F7770E0221F2227221F9381892F26
:100C7000880F822B282F30E0991F9927991F1196F2
:100C80009C93119721153105A9F541155105610571
:100C9000710511F482E037C082E89FEF13969C93B0
:100CA0008E9312979A01AB0167E0220F331F441F06
:100CB000551F6A95D1F783E08C930DC0220F331F27
:100CC000441F551F12968D919C911397019713966F
:100CD0009C938E931297203080E0380780E048077D
:100CE00080E4580758F314962D933D934D935C93ED
:100CF000179708952F3F310579F441155105610586
:100D0000710519F484E08C93089564FF03C081E0B9
:100D10008C9312C01C9210C02F57304013963C93F6
:100D20002E93129783E08C9387E0440F551F661F24
:100D3000771F8A95D1F7706414964D935D936D93E8
:100D40007C93179708951F93DC01FB019C919230CF
:100D500008F447C08081823008F443C0943051F4D5
:100D600011961C91843099F58181682F70E0611B88
:100D700071093FC0843021F0923031F48230B9F1F2
:100D80008181882389F12DC011961C9111978230A1
:100D9000F1F081811817D9F412962D913C91139797
:100DA000828193818217930794F028173907BCF04A
:100DB00014968D919D910D90BC91A02D248135812B
:100DC00046815781281739074A075B0718F4112312
:100DD00041F00AC082179307A407B50740F4112316
:100DE00019F061E070E005C06FEF7FEF02C060E0D6
:100DF00070E0CB011F910895DF93CF93CDB7DEB79D
:100E0000A6E2B0E0E6E2F0E0808180688C93CF91CA
:100E1000DF910895DF93CF93CDB7DEB7A6E2B0E0C0
:100E2000E6E2F0E080818F778C93CF91DF91089597
:100E3000DF93CF9300D0CDB7DEB79A838983A7E243
:100E4000B0E0E981FA8180818295880F880F807CEB
:100E50008C93E6E2F0E087E88083A6E2B0E0E6E289
:100E6000F0E08081982F987FE981FA818181892B38
:100E70008C93A0E5B0E0E0E5F0E08081282F2F71B1
:100E8000E981FA818281882F90E0002496958795E8
:100E90000794969587950794982F802D822B8C9395
:100EA0000F900F90CF91DF910895DF93CF930F9222
:100EB000CDB7DEB7898380E0698140E00E94B70842
:100EC000A7E2B0E0E7E2F0E08081982F907E898190
:100ED000892B8C93A6E2B0E0E6E2F0E080818064AA
:100EE0008C93E6E2F0E08081882F90E08071907032
:100EF00095958795959587959595879595958795DA
:100F0000009779F3A6E2B0E0E6E2F0E080818F7B23
:100F10008C93A6E2B0E0E6E2F0E0808180618C9301
:100F2000E4E2F0E0808191810F90CF91DF9108950C
:100F3000DF93CF9300D00F92CDB7DEB79B838A8328
:100F4000EBE2F0E082E08083AAE2B0E0EA81FB819C
:100F50008281847088618C93A0E4B0E0EA81FB8197
:100F60008181882F90E0880F991F880F991F880F23
:100F7000991F282F2068EA81FB818281882F90E0C9
:100F800081709070880F991F282BEA81FB818281E4
:100F9000882F90E08270907095958795880F991FA3
:100FA000880F991F822B8C93A0E4B0E0E0E4F0E07E
:100FB0008081282F2F7CEA81FB818081882F90E01F
:100FC00082959295907F9827807F9827822B8C938B
:100FD000EA81FB8183819481A581B681880F991F65
:100FE000AA1FBB1F880F991FAA1FBB1F880F991F1D
:100FF000AA1FBB1F9C01AD0180E094E2A4EFB0E00A
:10100000BC01CD010E946620DA01C90181508983AB
:10101000E0E4F0E08981882F90E0892F990F990B07
:101020008083E9E2F0E0898180830F900F900F9038
:10103000CF91DF910895DF93CF930F92CDB7DEB7B5
:101040008983EBE2F0E08081882F90E080729070DD
:101050000097B9F3ECE2F0E0898180830F90CF91A3
:10106000DF910895DF93CF93CDB7DEB7EBE2F0E0E9
:1010700080818823DCF7ECE2F0E08081CF91DF9182
:101080000895DF93CF9300D000D0CDB7DEB79C8317
:101090008B831A8219820FC02B813C8189819A81AE
:1010A000F901E80FF91F80810E941B0889819A814C
:1010B00001969A8389832B813C8189819A81F901E8
:1010C000E80FF91F8081882339F70F900F900F9058
:1010D0000F90CF91DF9108950F931F93DF93CF93DC
:1010E00000D000D00F92CDB7DEB79C838B831A82DD
:1010F00019822B813C8189819A818901080F191FEE
:101100000E943208F80180830BC02B813C818981C9
:101110009A818901080F191F0E943208F801808303
:101120002B813C8189819A81F901E80FF91F808127
:101130001D82833211F0F1E0FD8389819A8101964D
:101140009A8389838D81882301F78B819C812981F2
:101150003A81FC01E20FF31F10820F900F900F9065
:101160000F900F90CF91DF911F910F910895DF9312
:10117000CF9300D000D00F92CDB7DEB789836A83BA
:101180004B838981843008F0D5C08A81883008F08B
:10119000D1C08981282F30E03D832C838C819D81B3
:1011A0008130910509F443C02C813D812230310505
:1011B0002CF48C819D81009771F0BCC02C813D8105
:1011C0002230310509F45FC08C819D818330910507
:1011D00009F485C0AFC08B818130A1F4AAE3B0E0EF
:1011E000EAE3F0E08081482F8A81282F30E081E017
:1011F00090E0022E02C0880F991F0A94E2F7842B18
:101200008C9398C0AAE3B0E0EAE3F0E08081482F35
:101210008A81282F30E081E090E0022E02C0880F02
:10122000991F0A94E2F7809584238C9383C08B8165
:101230008130A1F4A7E3B0E0E7E3F0E08081482F3C
:101240008A81282F30E081E090E0022E02C0880FD2
:10125000991F0A94E2F7842B8C936CC0A7E3B0E04B
:10126000E7E3F0E08081482F8A81282F30E081E099
:1012700090E0022E02C0880F991F0A94E2F7809531
:1012800084238C9357C08B818130A1F4A4E3B0E018
:10129000E4E3F0E08081482F8A81282F30E081E06C
:1012A00090E0022E02C0880F991F0A94E2F7842B67
:1012B0008C9340C0A4E3B0E0E4E3F0E08081482FE9
:1012C0008A81282F30E081E090E0022E02C0880F52
:1012D000991F0A94E2F7809584238C932BC08B810D
:1012E0008130A1F4A1E3B0E0E1E3F0E08081482F98
:1012F0008A81282F30E081E090E0022E02C0880F22
:10130000991F0A94E2F7842B8C9314C0A1E3B0E0F8
:10131000E1E3F0E08081482F8A81282F30E081E0EE
:1013200090E0022E02C0880F991F0A94E2F7809580
:1013300084238C930F900F900F900F900F90CF916C
:10134000DF910895DF93CF9300D000D00F92CDB7F7
:10135000DEB789836A834B838981843008F0D5C0E6
:101360008A81883008F0D1C08981282F30E03D8300
:101370002C838C819D818130910509F443C02C819F
:101380003D81223031052CF48C819D81009771F0D4
:10139000BCC02C813D812230310509F45FC08C81B5
:1013A0009D818330910509F485C0AFC08B81813068
:1013B000A1F4ABE3B0E0EBE3F0E08081482F8A8159
:1013C000282F30E081E090E0022E02C0880F991FA4
:1013D0000A94E2F7842B8C9398C0ABE3B0E0EBE384
:1013E000F0E08081482F8A81282F30E081E090E072
:1013F000022E02C0880F991F0A94E2F78095842379
:101400008C9383C08B818130A1F4A8E3B0E0E8E342
:10141000F0E08081482F8A81282F30E081E090E041
:10142000022E02C0880F991F0A94E2F7842B8C9336
:101430006CC0A8E3B0E0E8E3F0E08081482F8A8147
:10144000282F30E081E090E0022E02C0880F991F23
:101450000A94E2F7809584238C9357C08B81813066
:10146000A1F4A5E3B0E0E5E3F0E08081482F8A81B4
:10147000282F30E081E090E0022E02C0880F991FF3
:101480000A94E2F7842B8C9340C0A5E3B0E0E5E337
:10149000F0E08081482F8A81282F30E081E090E0C1
:1014A000022E02C0880F991F0A94E2F780958423C8
:1014B0008C932BC08B818130A1F4A2E3B0E0E2E3F6
:1014C000F0E08081482F8A81282F30E081E090E091
:1014D000022E02C0880F991F0A94E2F7842B8C9386
:1014E00014C0A2E3B0E0E2E3F0E08081482F8A81FB
:1014F000282F30E081E090E0022E02C0880F991F73
:101500000A94E2F7809584238C930F900F900F90AC
:101510000F900F90CF91DF910895DF93CF9300D07C
:1015200000D00F92CDB7DEB789836A838A81883075
:1015300008F085C08981843008F081C08981282F16
:1015400030E03D832C834C815D814130510579F140
:101550008C819D818230910534F42C813D8121154F
:10156000310569F06CC04C815D8142305105B9F1A3
:101570008C819D818330910509F449C060C0E9E305
:10158000F0E08081282F30E08A81882F90E0A90147
:1015900002C0559547958A95E2F7CA01817090700F
:1015A000882319F051E05B834BC01B8249C0E6E3FE
:1015B000F0E08081282F30E08A81882F90E0A90117
:1015C00002C0559547958A95E2F7CA0181709070DF
:1015D000882319F051E05B8333C01B8231C0E3E301
:1015E000F0E08081282F30E08A81882F90E0A901E7
:1015F00002C0559547958A95E2F7CA0181709070AF
:10160000882319F051E05B831BC01B8219C0E0E303
:10161000F0E08081282F30E08A81882F90E0A901B6
:1016200002C0559547958A95E2F7CA01817090707E
:10163000882319F051E05B8303C01B8201C01B8229
:101640008B810F900F900F900F900F90CF91DF91A3
:101650000895DF93CF9300D000D0CDB7DEB7898354
:101660006A838981843090F58981282F30E03C831A
:101670002B838B819C8181309105D1F02B813C8122
:10168000223031052CF48B819C81009761F01EC0C3
:101690002B813C812230310581F08B819C8183300C
:1016A000910581F013C0EAE3F0E08A8180830EC0E7
:1016B000E7E3F0E08A81808309C0E4E3F0E08A8117
:1016C000808304C0E1E3F0E08A8180830F900F9073
:1016D0000F900F90CF91DF910895DF93CF9300D0BB
:1016E00000D0CDB7DEB789836A838981843090F5D5
:1016F0008981282F30E03C832B838B819C81813032
:101700009105D1F02B813C81223031052CF48B8165
:101710009C81009761F01EC02B813C8122303105F5
:1017200081F08B819C818330910581F013C0EBE3C4
:10173000F0E08A8180830EC0E8E3F0E08A81808354
:1017400009C0E5E3F0E08A81808304C0E2E3F0E0D1
:101750008A8180830F900F900F900F90CF91DF912F
:101760000895DF93CF9300D000D0CDB7DEB78A8342
:1017700019828A81843090F58A81282F30E03C8359
:101780002B838B819C8181309105D1F02B813C8111
:10179000223031052CF48B819C81009761F01EC0B2
:1017A0002B813C812230310581F08B819C818330FB
:1017B000910581F013C0E9E3F0E0808189830EC0D8
:1017C000E6E3F0E08081898309C0E3E3F0E0808113
:1017D000898304C0E0E3F0E08081898389810F90F0
:1017E0000F900F900F90CF91DF9108950F931F935B
:1017F000DF93CF93CDB7DEB7C356D0400FB6F89482
:10180000DEBF0FBECDBFFE01ED59FF4F808380E0EC
:1018100063E040E00E94A209FE01E15AFF4F80E030
:1018200090E0A0E8BFE380839183A283B3838E011D
:10183000055A1F4FFE01E15AFF4F6081718182817D
:10184000938120E030E04AE755E40E941F02DC016A
:10185000CB01F80180839183A283B383FE01E55A13
:10186000FF4F608171818281938120E030E040E808
:101870005FE30E942504882344F4FE01E75AFF4FEA
:1018800081E090E09183808364C0FE01E55AFF4FC0
:10189000608171818281938120E03FEF4FE757E4BF
:1018A0000E94C50318160CF043C0FE01E15AFF4F19
:1018B000608171818281938120E030E040E251E4D7
:1018C0000E941F02DC01CB018E01075A1F4FBC0191
:1018D000CD010E944900DC01CB01F8019183808396
:1018E0001FC0FE01E95AFF4F80E991E09183808398
:1018F000FE01E95AFF4F808191810197F1F7FE01C6
:10190000E95AFF4F91838083DE01A75ABF4FFE0142
:10191000E75AFF4F80819181019711969C938E9396
:10192000FE01E75AFF4F808191810097D1F627C0D1
:101930008E01075A1F4FFE01E55AFF4F60817181EA
:10194000828193810E944900DC01CB01F8019183DF
:101950008083DE01AB5ABF4FFE01E75AFF4F808103
:1019600091818D939C93FE01EB5AFF4F8081918171
:101970000197F1F7FE01EB5AFF4F9183808380E0DE
:1019800062E041E00E94A209FE01EF5AFF4F80E0B1
:1019900090E0A0E8BFE380839183A283B3838E01AC
:1019A000035B1F4FFE01EF5AFF4F608171818281FF
:1019B000938120E030E04AE755E40E941F02DC01F9
:1019C000CB01F80180839183A283B383FE01E35BA3
:1019D000FF4F608171818281938120E030E040E897
:1019E0005FE30E942504882344F4FE01E55BFF4F7A
:1019F00081E090E09183808364C0FE01E35BFF4F50
:101A0000608171818281938120E03FEF4FE757E44D
:101A10000E94C50318160CF043C0FE01EF5AFF4F99
:101A2000608171818281938120E030E040E251E465
:101A30000E941F02DC01CB018E01055B1F4FBC0120
:101A4000CD010E944900DC01CB01F8019183808324
:101A50001FC0FE01E75BFF4F80E991E09183808327
:101A6000FE01E75BFF4F808191810197F1F7FE0155
:101A7000E75BFF4F91838083DE01A55BBF4FFE01D3
:101A8000E55BFF4F80819181019711969C938E9326
:101A9000FE01E55BFF4F808191810097D1F627C061
:101AA0008E01055B1F4FFE01E35BFF4F608171817B
:101AB000828193810E944900DC01CB01F80191836E
:101AC0008083DE01A95BBF4FFE01E55BFF4F808194
:101AD00091818D939C93FE01E95BFF4F8081918101
:101AE0000197F1F7FE01E95BFF4F91838083FE01CF
:101AF000ED59FF4F8081882F90E08071907095950F
:101B00008795959587959595879595958795982F20
:101B100081E060E0492F0E94A209FE01ED59FF4FCC
:101B20008081882F90E0807290709595879595952B
:101B30008795959587959595879595958795982FF0
:101B400081E061E0492F0E94A209FE01ED59FF4F9B
:101B50008081882F90E080749070082E892F000C6F
:101B6000881F990B000C881F991F982F81E062E055
:101B7000492F0E94A209FE01ED59FF4F8081982F45
:101B8000991F9927991F81E064E0492F0E94A209BB
:101B9000FE01ED5BFF4F80E090E0A0E8BFE38083B3
:101BA0009183A283B3838E01015C1F4FFE01ED5B25
:101BB000FF4F608171818281938120E030E04AE7AC
:101BC00055E40E941F02DC01CB01F8018083918360
:101BD000A283B383FE01FF9660817181828193812C
:101BE00020E030E040E85FE30E94250488232CF4E5
:101BF00081E090E09EAF8DAF46C0FE01FF96608110
:101C000071818281938120E03FEF4FE757E40E948A
:101C1000C503181664F5FE01ED5BFF4F608171810D
:101C20008281938120E030E040E251E40E941F0273
:101C3000DC01CB01BC01CD010E944900DC01CB01DC
:101C40009EAF8DAF0FC080E991E09CAF8BAF8BADA5
:101C50009CAD0197F1F79CAF8BAF8DAD9EAD019719
:101C60009EAF8DAF8DAD9EAD009769F716C0FE019A
:101C7000FF9660817181828193810E944900DC011D
:101C8000CB019EAF8DAF8DAD9EAD9AAF89AF89ADC3
:101C90009AAD0197F1F79AAF89AF80E062E040E03A
:101CA0000E94A20980E090E0A0E8BFE38DAB9EAB6C
:101CB000AFABB8AF6DA97EA98FA998AD20E030E099
:101CC0004AE755E40E941F02DC01CB0189AB9AABC5
:101CD000ABABBCAB69A97AA98BA99CA920E030E089
:101CE00040E85FE30E94250488232CF481E090E023
:101CF00098AB8FA73FC069A97AA98BA99CA920E0BE
:101D00003FEF4FE757E40E94C50318164CF56DA945
:101D10007EA98FA998AD20E030E040E251E40E9416
:101D20001F02DC01CB01BC01CD010E944900DC0196
:101D3000CB0198AB8FA70FC080E991E09EA78DA73C
:101D40008DA59EA50197F1F79EA78DA78FA598A9B0
:101D5000019798AB8FA78FA598A9009769F714C032
:101D600069A97AA98BA99CA90E944900DC01CB0131
:101D700098AB8FA78FA598A99CA78BA78BA59CA58F
:101D80000197F1F79CA78BA780E062E041E00E94F9
:101D9000A20980E090E0A0E8BFE38FA398A7A9A7DD
:101DA000BAA76FA178A589A59AA520E030E04AE7F7
:101DB00055E40E941F02DC01CB018BA39CA3ADA3C1
:101DC000BEA36BA17CA18DA19EA120E030E040E8E4
:101DD0005FE30E94250488232CF481E090E09AA31D
:101DE00089A33FC06BA17CA18DA19EA120E03FEF04
:101DF0004FE757E40E94C50318164CF56FA178A56C
:101E000089A59AA520E030E040E251E40E941F023B
:101E1000DC01CB01BC01CD010E944900DC01CB01FA
:101E20009AA389A30FC080E991E098A38F8F8F8D2B
:101E300098A10197F1F798A38F8F89A19AA1019793
:101E40009AA389A389A19AA1009769F714C06BA1ED
:101E50007CA18DA19EA10E944900DC01CB019AA327
:101E600089A389A19AA19E8F8D8F8D8D9E8D0197BB
:101E7000F1F79E8F8D8FFE01ED59FF4F8081982FD6
:101E8000917081E060E0492F0E94A209FE01ED59A6
:101E9000FF4F8081882F90E0827090709595879594
:101EA000982F81E061E0492F0E94A209FE01ED59BF
:101EB000FF4F8081882F90E0847090709595879572
:101EC00095958795982F81E062E0492F0E94A2099D
:101ED000FE01ED59FF4F8081882F90E0887090704F
:101EE000959587959595879595958795982F81E0F8
:101EF00064E0492F0E94A20980E090E0A0E8BFE3DF
:101F0000898F9A8FAB8FBC8F698D7A8D8B8D9C8DCD
:101F100020E030E04AE755E40E941F02DC01CB01DB
:101F20008D8B9E8BAF8BB88F6D897E898F89988DB5
:101F300020E030E040E85FE30E94250488232CF491
:101F400081E090E09C8B8B8B3FC06D897E898F896F
:101F5000988D20E03FEF4FE757E40E94C503181625
:101F60004CF5698D7A8D8B8D9C8D20E030E040E2C0
:101F700051E40E941F02DC01CB01BC01CD010E9493
:101F80004900DC01CB019C8B8B8B0FC080E991E079
:101F90009A8B898B89899A890197F1F79A8B898B1A
:101FA0008B899C8901979C8B8B8B8B899C89009753
:101FB00069F714C06D897E898F89988D0E944900C8
:101FC000DC01CB019C8B8B8B8B899C89988B8F87B9
:101FD0008F8598890197F1F7988B8F8780E062E071
:101FE00040E00E94A20980E090E0A0E8BFE38B8778
:101FF0009C87AD87BE876B857C858D859E8520E01F
:1020000030E04AE755E40E941F02DC01CB018F83D8
:102010009887A987BA876F81788589859A8520E016
:1020200030E040E85FE30E94250488232CF481E03F
:1020300090E09E838D833FC06F81788589859A85E6
:1020400020E03FEF4FE757E40E94C50318164CF518
:102050006B857C858D859E8520E030E040E251E4F3
:102060000E941F02DC01CB01BC01CD010E9449008E
:10207000DC01CB019E838D830FC080E991E09C83BE
:102080008B838B819C810197F1F79C838B838D815E
:102090009E8101979E838D838D819E81009769F734
:1020A00014C06F81788589859A850E944900DC017A
:1020B000CB019E838D838D819E819A8389838981C3
:1020C0009A810197F1F79A838983CD59DF4F0FB633
:1020D000F894DEBF0FBECDBFCF91DF911F910F915E
:1020E0000895DF93CF93CDB7DEB76C970FB6F89412
:1020F000DEBF0FBECDBF80E062E041E00E94B708C6
:1021000080E063E041E00E94B70880E090E0A0EA50
:10211000B1E4898F9A8FAB8FBC8F698D7A8D8B8D4F
:102120009C8D20E030E04AE755E40E941F02DC016C
:10213000CB018D8B9E8BAF8BB88F6D897E898F89FC
:10214000988D20E030E040E85FE30E94250488237A
:102150002CF481E090E09C8B8B8B3FC06D897E8955
:102160008F89988D20E03FEF4FE757E40E94C50329
:1021700018164CF5698D7A8D8B8D9C8D20E030E0A2
:1021800040E251E40E941F02DC01CB01BC01CD0101
:102190000E944900DC01CB019C8B8B8B0FC080E936
:1021A00091E09A8B898B89899A890197F1F79A8BAB
:1021B000898B8B899C8901979C8B8B8B8B899C89C4
:1021C000009769F714C06D897E898F89988D0E9468
:1021D0004900DC01CB019C8B8B8B8B899C89988B74
:1021E0008F878F8598890197F1F7988B8F8781E08A
:1021F00060E041E00E94B70881E061E041E00E94B8
:10220000B70881E062E041E00E94B70881E064E045
:1022100041E00E94B70880E090E0A0EAB1E48B873B
:102220009C87AD87BE876B857C858D859E8520E0EC
:1022300030E04AE755E40E941F02DC01CB018F83A6
:102240009887A987BA876F81788589859A8520E0E4
:1022500030E040E85FE30E94250488232CF481E00D
:1022600090E09E838D833FC06F81788589859A85B4
:1022700020E03FEF4FE757E40E94C50318164CF5E6
:102280006B857C858D859E8520E030E040E251E4C1
:102290000E941F02DC01CB01BC01CD010E9449005C
:1022A000DC01CB019E838D830FC080E991E09C838C
:1022B0008B838B819C810197F1F79C838B838D812C
:1022C0009E8101979E838D838D819E81009769F702
:1022D00014C06F81788589859A850E944900DC0148
:1022E000CB019E838D838D819E819A838983898191
:1022F0009A810197F1F79A83898383E30E94F60B11
:1023000082E30E94F60B88E20E94F60B8CE00E94AA
:10231000F60B81E00E94F60B6C960FB6F894DEBFC8
:102320000FBECDBFCF91DF9108950F931F93DF9321
:10233000CF93CDB7DEB7C356D0400FB6F894DEBF0B
:102340000FBECDBFFE01ED59FF4F808380E063E0FB
:1023500041E00E94A209FE01E15AFF4F80E090E0B7
:10236000A0E8BFE380839183A283B3838E01055AE3
:102370001F4FFE01E15AFF4F60817181828193817D
:1023800020E030E04AE755E40E941F02DC01CB0167
:10239000F80180839183A283B383FE01E55AFF4F46
:1023A000608171818281938120E030E040E85FE3C9
:1023B0000E942504882344F4FE01E75AFF4F81E080
:1023C00090E09183808364C0FE01E55AFF4F6081F5
:1023D00071818281938120E03FEF4FE757E40E94B3
:1023E000C50318160CF043C0FE01E15AFF4F60818F
:1023F00071818281938120E030E040E251E40E94CB
:102400001F02DC01CB018E01075A1F4FBC01CD0119
:102410000E944900DC01CB01F801918380831FC039
:10242000FE01E95AFF4F80E991E091838083FE012C
:10243000E95AFF4F808191810197F1F7FE01E95A36
:10244000FF4F91838083DE01A75ABF4FFE01E75AF9
:10245000FF4F80819181019711969C938E93FE018D
:10246000E75AFF4F808191810097D1F627C08E01F6
:10247000075A1F4FFE01E55AFF4F6081718182812B
:1024800093810E944900DC01CB01F8019183808394
:10249000DE01AB5ABF4FFE01E75AFF4F80819181A9
:1024A0008D939C93FE01EB5AFF4F808191810197A0
:1024B000F1F7FE01EB5AFF4F9183808380E062E0E9
:1024C00041E00E94A209FE01EF5AFF4F80E090E038
:1024D000A0E8BFE380839183A283B3838E01035B73
:1024E0001F4FFE01EF5AFF4F6081718182819381FE
:1024F00020E030E04AE755E40E941F02DC01CB01F6
:10250000F80180839183A283B383FE01E35BFF4FD5
:10251000608171818281938120E030E040E85FE357
:102520000E942504882344F4FE01E55BFF4F81E00F
:1025300090E09183808364C0FE01E35BFF4F608184
:1025400071818281938120E03FEF4FE757E40E9441
:10255000C50318160CF043C0FE01EF5AFF4F60810F
:1025600071818281938120E030E040E251E40E9459
:102570001F02DC01CB018E01055B1F4FBC01CD01A9
:102580000E944900DC01CB01F801918380831FC0C8
:10259000FE01E75BFF4F80E991E091838083FE01BC
:1025A000E75BFF4F808191810197F1F7FE01E75BC7
:1025B000FF4F91838083DE01A55BBF4FFE01E55B8A
:1025C000FF4F80819181019711969C938E93FE011C
:1025D000E55BFF4F808191810097D1F627C08E0186
:1025E000055B1F4FFE01E35BFF4F608171818281BC
:1025F00093810E944900DC01CB01F8019183808323
:10260000DE01A95BBF4FFE01E55BFF4F8081918139
:102610008D939C93FE01E95BFF4F8081918101972F
:10262000F1F7FE01E95BFF4F91838083FE01ED59D5
:10263000FF4F8081882F90E08071907095958795ED
:10264000959587959595879595958795982F81E090
:1026500060E0492F0E94A209FE01ED59FF4F8081E1
:10266000882F90E0807290709595879595958795C5
:10267000959587959595879595958795982F81E060
:1026800061E0492F0E94A209FE01ED59FF4F8081B0
:10269000882F90E080749070082E892F000C881F7E
:1026A000990B000C881F991F982F81E062E0492F39
:1026B0000E94A209FE01ED59FF4F8081982F991FBA
:1026C0009927991F81E064E0492F0E94A209FE0129
:1026D000ED5BFF4F80E090E0A0E8BFE38083918353
:1026E000A283B3838E01015C1F4FFE01ED5BFF4FA0
:1026F000608171818281938120E030E04AE755E476
:102700000E941F02DC01CB01F80180839183A28328
:10271000B383FE01FF96608171818281938120E005
:1027200030E040E85FE30E94250488232CF481E038
:1027300090E09EAF8DAF46C0FE01FF966081718133
:102740008281938120E03FEF4FE757E40E94C50369
:10275000181664F5FE01ED5BFF4F60817181828187
:10276000938120E030E040E251E40E941F02DC014E
:10277000CB01BC01CD010E944900DC01CB019EAF21
:102780008DAF0FC080E991E09CAF8BAF8BAD9CAD5E
:102790000197F1F79CAF8BAF8DAD9EAD01979EAFCA
:1027A0008DAF8DAD9EAD009769F716C0FE01FF9607
:1027B00060817181828193810E944900DC01CB019B
:1027C0009EAF8DAF8DAD9EAD9AAF89AF89AD9AADFD
:1027D0000197F1F79AAF89AF80E062E040E00E9494
:1027E000A20980E090E0A0E8BFE38DAB9EABAFAB69
:1027F000B8AF6DA97EA98FA998AD20E030E04AE777
:1028000055E40E941F02DC01CB0189AB9AABABAB54
:10281000BCAB69A97AA98BA99CA920E030E040E86B
:102820005FE30E94250488232CF481E090E098ABBC
:102830008FA73FC069A97AA98BA99CA920E03FEF87
:102840004FE757E40E94C50318164CF56DA97EA901
:102850008FA998AD20E030E040E251E40E941F02D1
:10286000DC01CB01BC01CD010E944900DC01CB01A0
:1028700098AB8FA70FC080E991E09EA78DA78DA58B
:102880009EA50197F1F79EA78DA78FA598A90197FF
:1028900098AB8FA78FA598A9009769F714C069A96D
:1028A0007AA98BA99CA90E944900DC01CB0198ABB5
:1028B0008FA78FA598A99CA78BA78BA59CA50197EF
:1028C000F1F79CA78BA780E062E041E00E94A2099B
:1028D00080E090E0A0E8BFE38FA398A7A9A7BAA7DC
:1028E0006FA178A589A59AA520E030E04AE755E4D4
:1028F0000E941F02DC01CB018BA39CA3ADA3BEA34E
:102900006BA17CA18DA19EA120E030E040E85FE3B7
:102910000E94250488232CF481E090E09AA389A3E7
:102920003FC06BA17CA18DA19EA120E03FEF4FE7AE
:1029300057E40E94C50318164CF56FA178A589A528
:102940009AA520E030E040E251E40E941F02DC0141
:10295000CB01BC01CD010E944900DC01CB019AA34F
:1029600089A30FC080E991E098A38F8F8F8D98A1E4
:102970000197F1F798A38F8F89A19AA101979AA344
:1029800089A389A19AA1009769F714C06BA17CA1C2
:102990008DA19EA10E944900DC01CB019AA389A3CD
:1029A00089A19AA19E8F8D8F8D8D9E8D0197F1F7B4
:1029B0009E8F8D8FFE01ED59FF4F8081982F917072
:1029C00081E060E0492F0E94A209FE01ED59FF4F0E
:1029D0008081882F90E08270907095958795982FD0
:1029E00081E061E0492F0E94A209FE01ED59FF4FED
:1029F0008081882F90E0847090709595879595954B
:102A00008795982F81E062E0492F0E94A209FE017C
:102A1000ED59FF4F8081882F90E0887090709595D8
:102A200087959595879595958795982F81E064E092
:102A3000492F0E94A20980E090E0A0E8BFE3898FBF
:102A40009A8FAB8FBC8F698D7A8D8B8D9C8D20E09A
:102A500030E04AE755E40E941F02DC01CB018D8B78
:102A60009E8BAF8BB88F6D897E898F89988D20E082
:102A700030E040E85FE30E94250488232CF481E0E5
:102A800090E09C8B8B8B3FC06D897E898F89988D60
:102A900020E03FEF4FE757E40E94C50318164CF5BE
:102AA000698D7A8D8B8D9C8D20E030E040E251E481
:102AB0000E941F02DC01CB01BC01CD010E94490034
:102AC000DC01CB019C8B8B8B0FC080E991E09A8B52
:102AD000898B89899A890197F1F79A8B898B8B89E0
:102AE0009C8901979C8B8B8B8B899C89009769F7BC
:102AF00014C06D897E898F89988D0E944900DC0100
:102B0000CB019C8B8B8B8B899C89988B8F878F8536
:102B100098890197F1F7988B8F8780E062E040E019
:102B20000E94A20980E090E0A0E8BFE38B879C8729
:102B3000AD87BE876B857C858D859E8520E030E0E6
:102B40004AE755E40E941F02DC01CB018F8398877E
:102B5000A987BA876F81788589859A8520E030E0DA
:102B600040E85FE30E94250488232CF481E090E094
:102B70009E838D833FC06F81788589859A8520E00B
:102B80003FEF4FE757E40E94C50318164CF56B85DD
:102B90007C858D859E8520E030E040E251E40E94F6
:102BA0001F02DC01CB01BC01CD010E944900DC0108
:102BB000CB019E838D830FC080E991E09C838B8342
:102BC0008B819C810197F1F79C838B838D819E8102
:102BD00001979E838D838D819E81009769F714C034
:102BE0006F81788589859A850E944900DC01CB0137
:102BF0009E838D838D819E819A83898389819A8129
:102C00000197F1F79A838983CD59DF4F0FB6F89476
:102C1000DEBF0FBECDBFCF91DF911F910F91089501
:102C2000DF93CF9300D000D0CDB7DEB79C838B83EA
:102C30001A8219820FC029813A818B819C81FC0103
:102C4000E20FF31F80810E94951189819A8101967C
:102C50009A83898329813A818B819C81FC01E20FCF
:102C6000F31F8081882339F70F900F900F900F90FA
:102C7000CF91DF910895DF93CF9300D000D00F92D2
:102C8000CDB7DEB78A836B8319828A81282F30E023
:102C90003D832C838C819D8181309105C1F02C81F5
:102CA0003D81223031052CF48C819D81009761F0AB
:102CB00019C02C813D812230310569F08C819D81C4
:102CC0008330910561F00EC08B8189830BC08B81AD
:102CD000805C898307C08B81805F898303C08B817F
:102CE000805B8983898180680E94F60B0F900F902A
:102CF0000F900F900F90CF91DF910895DF93CF93B6
:102D0000CDB7DEB761970FB6F894DEBF0FBECDBF6B
:102D1000898B8989882F90E09E012F5F3F4FB901F1
:102D20004AE050E00E94BF20CE0101960E9410169A
:102D300061960FB6F894DEBF0FBECDBFCF91DF9185
:102D40000895DF93CF93CDB7DEB781E00E94F60BF5
:102D5000CF91DF9108950F931F93DF93CF93CDB75A
:102D6000DEB7C45AD0400FB6F894DEBF0FBECDBF59
:102D7000AFE5B0E0EFE5F0E0808180688C9380E023
:102D800065E041E00E94B70880E066E041E00E9413
:102D9000B70880E064E040E00E94B70883E062E0AA
:102DA00040E00E94B70883E063E040E00E94B7087B
:102DB000A5E5B0E0E5E5F0E080818F608C93ABE5C0
:102DC000B0E0EBE5F0E08081806C8C9381E066E020
:102DD00041E00E94B70881E066E040E00E94A2095D
:102DE000CE018F569F4FC556DF4F99838883CB59AD
:102DF000D0408FE691E0C356DF4F99838883CD5949
:102E0000D04093E0C156DF4F9883CF59D040C3568E
:102E1000DF4FE881F981CD59D0400080C356DF4FA4
:102E200088819981CD59D0400196C356DF4F99834F
:102E30008883CD59D040C556DF4FE881F981CB5901
:102E4000D0400082C556DF4F88819981CB59D04050
:102E50000196C556DF4F99838883CB59D040C15620
:102E6000DF4F9881CF59D0409150C156DF4F9883A2
:102E7000CF59D040C156DF4FE881CF59D040EE2323
:102E800031F6CE018F569F4F0E941807CE018C5607
:102E90009F4FC056DF4F99838883C05AD04088E641
:102EA00091E0CE55DF4F99838883C25AD04097E096
:102EB000CC55DF4F9883C45AD040CE55DF4FE881C0
:102EC000F981C25AD0400080CE55DF4F8881998168
:102ED000C25AD0400196CE55DF4F99838883C25A9B
:102EE000D040C056DF4FE881F981C05AD0400082FF
:102EF000C056DF4F88819981C05AD0400196C05694
:102F0000DF4F99838883C05AD040CC55DF4F9881DA
:102F1000C45AD0409150CC55DF4F9883C45AD0400A
:102F2000CC55DF4FE881C45AD040EE2331F6CE01B4
:102F30008C569F4F0E94980782E066E041E00E9415
:102F4000B708E7E2F0E01082A7E2B0E0E7E2F0E0E5
:102F5000808180648C93A7E2B0E0E7E2F0E08081BA
:102F6000807E81608C9381E00E945507FE01E057CE
:102F7000FF4F8083FE01E057FF4F8081282F30E014
:102F8000C901880F991F880F991F820F931FAA27C5
:102F900097FDA095BA2FBC01CD010E945504DC011C
:102FA000CB01BC01CD0120E030E040E854E40E94B8
:102FB0001903DC01CB01BC01CD0120E030E048EC7D
:102FC00052E40E941F02DC01CB018E0100571F4F0B
:102FD000BC01CD010E944900DC01CB01F8018083D6
:102FE000FE01E757FF4F80E090E0AAE7B4E480835A
:102FF0009183A283B3838E010B571F4FFE01E757C6
:10300000FF4F608171818281938120E030E04AE747
:1030100055E40E941F02DC01CB01F80180839183FB
:10302000A283B383FE01EB57FF4F608171818281E0
:10303000938120E030E040E85FE30E94250488238C
:1030400044F4FE01ED57FF4F81E090E091838083CF
:1030500064C0FE01EB57FF4F6081718182819381D3
:1030600020E03FEF4FE757E40E94C50318160CF02D
:1030700043C0FE01E757FF4F6081718182819381D8
:1030800020E030E040E251E40E941F02DC01CB016D
:103090008E010D571F4FBC01CD010E944900DC017C
:1030A000CB01F801918380831FC0FE01EF57FF4FD2
:1030B00080E991E091838083FE01EF57FF4F80818B
:1030C00091810197F1F7FE01EF57FF4F91838083C4
:1030D000DE01AD57BF4FFE01ED57FF4F808191815B
:1030E000019711969C938E93FE01ED57FF4F8081BF
:1030F00091810097D1F627C08E010D571F4FFE0119
:10310000EB57FF4F60817181828193810E9449005A
:10311000DC01CB01F80191838083DE01A158BF4F10
:10312000FE01ED57FF4F808191818D939C93FE01AD
:10313000E158FF4F808191810197F1F7FE01E1583D
:10314000FF4F9183808386E30E941B088091740166
:10315000909175010E941B088091740190917501F6
:103160000E941320FE01E558FF4F80E090E0AAE79F
:10317000B4E480839183A283B3838E0109581F4FE7
:10318000FE01E558FF4F608171818281938120E0CB
:1031900030E04AE755E40E941F02DC01CB01F80150
:1031A00080839183A283B383FE01E958FF4F60813E
:1031B00071818281938120E030E040E85FE30E94EA
:1031C0002504882344F4FE01EB58FF4F81E090E092
:1031D0009183808364C0FE01E958FF4F6081718153
:1031E0008281938120E03FEF4FE757E40E94C503BF
:1031F00018160CF043C0FE01E558FF4F6081718145
:103200008281938120E030E040E251E40E941F027D
:10321000DC01CB018E010B581F4FBC01CD010E9478
:103220004900DC01CB01F801918380831FC0FE01BE
:10323000ED58FF4F80E991E091838083FE01ED58C6
:10324000FF4F808191810197F1F7FE01ED58FF4F0B
:1032500091838083DE01AB58BF4FFE01EB58FF4FD7
:1032600080819181019711969C938E93FE01EB587A
:10327000FF4F808191810097D1F627C08E010B58B6
:103280001F4FFE01E958FF4F608171818281938158
:103290000E944900DC01CB01F80191838083DE01AB
:1032A000AF58BF4FFE01EB58FF4F808191818D9346
:1032B0009C93FE01EF58FF4F808191810197F1F7B8
:1032C000FE01EF58FF4F9183808383E30E941B0828
:1032D000FE01E359FF4F80E090E0A8ECB2E4808368
:1032E0009183A283B3838E0107591F4FFE01E359D7
:1032F000FF4F608171818281938120E030E04AE755
:1033000055E40E941F02DC01CB01F8018083918308
:10331000A283B383FE01E759FF4F608171818281EF
:10332000938120E030E040E85FE30E942504882399
:1033300044F4FE01E959FF4F81E090E091838083DE
:1033400064C0FE01E759FF4F6081718182819381E2
:1033500020E03FEF4FE757E40E94C50318160CF03A
:1033600043C0FE01E359FF4F6081718182819381E7
:1033700020E030E040E251E40E941F02DC01CB017A
:103380008E0109591F4FBC01CD010E944900DC018B
:10339000CB01F801918380831FC0FE01EB59FF4FE1
:1033A00080E991E091838083FE01EB59FF4F80819A
:1033B00091810197F1F7FE01EB59FF4F91838083D3
:1033C000DE01A959BF4FFE01E959FF4F808191816C
:1033D000019711969C938E93FE01E959FF4F8081CE
:1033E00091810097D1F627C08E0109591F4FFE0128
:1033F000E759FF4F60817181828193810E9449006A
:10340000DC01CB01F80191838083DE01AD59BF4F10
:10341000FE01E959FF4F808191818D939C93FE01BC
:10342000ED59FF4F808191810197F1F7FE01ED5930
:10343000FF4F91838083FE01E057FF4F80810E9400
:103440001B08FE01E15AFF4F80E090E0A8ECB2E4D7
:1034500080839183A283B3838E01055A1F4FFE019F
:10346000E15AFF4F608171818281938120E030E0D9
:103470004AE755E40E941F02DC01CB01F80180837A
:103480009183A283B383FE01E55AFF4F608171816E
:103490008281938120E030E040E85FE30E942504D0
:1034A000882344F4FE01E75AFF4F81E090E09183C6
:1034B000808364C0FE01E55AFF4F60817181828183
:1034C000938120E03FEF4FE757E40E94C5031816B1
:1034D0000CF043C0FE01E15AFF4F6081718182818F
:1034E000938120E030E040E251E40E941F02DC01C1
:1034F000CB018E01075A1F4FBC01CD010E9449002C
:10350000DC01CB01F801918380831FC0FE01E95AE1
:10351000FF4F80E991E091838083FE01E95AFF4FDC
:10352000808191810197F1F7FE01E95AFF4F918364
:103530008083DE01A75ABF4FFE01E75AFF4F80810B
:103540009181019711969C938E93FE01E75AFF4F4C
:10355000808191810097D1F627C08E01075A1F4FB5
:10356000FE01E55AFF4F60817181828193810E9443
:103570004900DC01CB01F80191838083DE01AB5A65
:10358000BF4FFE01E75AFF4F808191818D939C933D
:10359000FE01EB5AFF4F808191810197F1F7FE0107
:1035A000EB5AFF4F9183808382E00E945507FE0112
:1035B000E257FF4F808381E30E941B08FE01EF5A10
:1035C000FF4F80E090E0A8ECB2E480839183A28377
:1035D000B3838E01035B1F4FFE01EF5AFF4F6081E3
:1035E00071818281938120E030E04AE755E40E94B6
:1035F0001F02DC01CB01F80180839183A283B38396
:10360000FE01E35BFF4F608171818281938120E045
:1036100030E040E85FE30E942504882344F4FE0183
:10362000E55BFF4F81E090E09183808364C0FE0101
:10363000E35BFF4F608171818281938120E03FEFE6
:103640004FE757E40E94C50318160CF043C0FE0173
:10365000EF5AFF4F608171818281938120E030E0D9
:1036600040E251E40E941F02DC01CB018E01055BA8
:103670001F4FBC01CD010E944900DC01CB01F801C4
:10368000918380831FC0FE01E75BFF4F80E991E0DB
:1036900091838083FE01E75BFF4F808191810197D9
:1036A000F1F7FE01E75BFF4F91838083DE01A55BAD
:1036B000BF4FFE01E55BFF4F80819181019711961D
:1036C0009C938E93FE01E55BFF4F80819181009773
:1036D000D1F627C08E01055B1F4FFE01E35BFF4F54
:1036E00060817181828193810E944900DC01CB015C
:1036F000F80191838083DE01A95BBF4FFE01E55B8A
:10370000FF4F808191818D939C93FE01E95BFF4F78
:10371000808191810197F1F7FE01E95BFF4F918371
:103720008083FE01E257FF4F80810E941B08FE014B
:10373000ED5BFF4F80E090E0A8ECB2E480839183E2
:10374000A283B3838E01015C1F4FFE01ED5BFF4F2F
:10375000608171818281938120E030E04AE755E405
:103760000E941F02DC01CB01F80180839183A283B8
:10377000B383FE01FF96608171818281938120E095
:1037800030E040E85FE30E94250488232CF481E0C8
:1037900090E09EAF8DAF46C0FE01FF9660817181C3
:1037A0008281938120E03FEF4FE757E40E94C503F9
:1037B000181664F5FE01ED5BFF4F60817181828117
:1037C000938120E030E040E251E40E941F02DC01DE
:1037D000CB01BC01CD010E944900DC01CB019EAFB1
:1037E0008DAF0FC080E991E09CAF8BAF8BAD9CADEE
:1037F0000197F1F79CAF8BAF8DAD9EAD01979EAF5A
:103800008DAF8DAD9EAD009769F716C0FE01FF9696
:1038100060817181828193810E944900DC01CB012A
:103820009EAF8DAF8DAD9EAD9AAF89AF89AD9AAD8C
:103830000197F1F79AAF89AF83E00E945507FE0127
:10384000E357FF4F808382E30E941B0880E090E0F3
:10385000A8ECB2E48DAB9EABAFABB8AF6DA97EA9BF
:103860008FA998AD20E030E04AE755E40E941F029E
:10387000DC01CB0189AB9AABABABBCAB69A97AA934
:103880008BA99CA920E030E040E85FE30E9425047A
:1038900088232CF481E090E098AB8FA73FC069A902
:1038A0007AA98BA99CA920E03FEF4FE757E40E943B
:1038B000C50318164CF56DA97EA98FA998AD20E017
:1038C00030E040E251E40E941F02DC01CB01BC0168
:1038D000CD010E944900DC01CB0198AB8FA70FC03E
:1038E00080E991E09EA78DA78DA59EA50197F1F790
:1038F0009EA78DA78FA598A9019798AB8FA78FA595
:1039000098A9009769F714C069A97AA98BA99CA9FD
:103910000E944900DC01CB0198AB8FA78FA598A925
:103920009CA78BA78BA59CA50197F1F79CA78BA7BC
:10393000FE01E357FF4F80810E941B0880E090E06A
:10394000A8ECB2E48FA398A7A9A7BAA76FA178A5FE
:1039500089A59AA520E030E04AE755E40E941F02BD
:10396000DC01CB018BA39CA3ADA3BEA36BA17CA167
:103970008DA19EA120E030E040E85FE30E94250495
:1039800088232CF481E090E09AA389A33FC06BA127
:103990007CA18DA19EA120E03FEF4FE757E40E945C
:1039A000C50318164CF56FA178A589A59AA520E046
:1039B00030E040E251E40E941F02DC01CB01BC0177
:1039C000CD010E944900DC01CB019AA389A30FC05D
:1039D00080E991E098A38F8F8F8D98A10197F1F7DF
:1039E00098A38F8F89A19AA101979AA389A389A1EE
:1039F0009AA1009769F714C06BA17CA18DA19EA12B
:103A00000E944900DC01CB019AA389A389A19AA154
:103A10009E8F8D8F8D8D9E8D0197F1F79E8F8D8F4F
:103A2000E9E3F0E08081882F90E08071907000974A
:103A300041F482E066E041E00E94A20984E30E9432
:103A40001B0880E090E0A8ECB2E4898F9A8FAB8FDE
:103A5000BC8F698D7A8D8B8D9C8D20E030E04AE79C
:103A600055E40E941F02DC01CB018D8B9E8BAF8B36
:103A7000B88F6D897E898F89988D20E030E040E88D
:103A80005FE30E94250488232CF481E090E09C8B66
:103A90008B8B3FC06D897E898F89988D20E03FEFA9
:103AA0004FE757E40E94C50318164CF5698D7A8DCF
:103AB0008B8D9C8D20E030E040E251E40E941F029B
:103AC000DC01CB01BC01CD010E944900DC01CB012E
:103AD0009C8B8B8B0FC080E991E09A8B898B8989B5
:103AE0009A890197F1F79A8B898B8B899C89019729
:103AF0009C8B8B8B8B899C89009769F714C06D898F
:103B00007E898F89988D0E944900DC01CB019C8BB6
:103B10008B8B8B899C89988B8F878F859889019750
:103B2000F1F7988B8F87FE01E257FF4F8081893C28
:103B300038F480917601909177018130910571F48C
:103B400082E066E041E00E94A20981E090E090936B
:103B500077018093760185E30E941B0880E090E066
:103B6000A8ECB2E48B879C87AD87BE876B857C858C
:103B70008D859E8520E030E04AE755E40E941F02D3
:103B8000DC01CB018F839887A987BA876F817885FD
:103B900089859A8520E030E040E85FE30E942504B3
:103BA00088232CF481E090E09E838D833FC06F8159
:103BB000788589859A8520E03FEF4FE757E40E949A
:103BC000C50318164CF56B857C858D859E8520E098
:103BD00030E040E251E40E941F02DC01CB01BC0155
:103BE000CD010E944900DC01CB019E838D830FC073
:103BF00080E991E09C838B838B819C810197F1F715
:103C00009C838B838D819E8101979E838D838D8183
:103C10009E81009769F795C96F81788589859A8516
:103C20000E944900DC01CB019E838D838D819E81A2
:103C30009A83898389819A810197F1F79A8389838D
:103C400080C91F920F920FB60F9211242F933F93AA
:103C50004F935F936F937F938F939F93AF93BF9394
:103C6000EF93FF93DF93CF93CDB7DEB72E97DEBFF1
:103C7000CDBF80917301813009F08DC01092730126
:103C80008091740190917501009749F080917401C1
:103C90009091750101979093750180937401E2E30F
:103CA000F0E08081882F90E0847090700097B9F7E1
:103CB00080E090E0AAEFB3E48B879C87AD87BE8756
:103CC0006B857C858D859E8520E030E04AE755E454
:103CD0000E941F02DC01CB018F839887A987BA87D6
:103CE0006F81788589859A8520E030E040E85FE340
:103CF0000E94250488232CF481E090E09E838D832C
:103D00003FC06F81788589859A8520E03FEF4FE736
:103D100057E40E94C50318164CF56B857C858D858C
:103D20009E8520E030E040E251E40E941F02DC0169
:103D3000CB01BC01CD010E944900DC01CB019E8377
:103D40008D830FC080E991E09C838B838B819C8164
:103D50000197F1F79C838B838D819E8101979E83D0
:103D60008D838D819E81009769F718C06F8178855A
:103D700089859A850E944900DC01CB019E838D8351
:103D80008D819E819A83898389819A810197F1F738
:103D90009A83898303C081E0809372012E96DEBFEF
:103DA000CDBFCF91DF91FF91EF91BF91AF919F91E7
:103DB0008F917F916F915F914F913F912F910F90D4
:103DC0000FBE0F901F9018951F920F920FB60F9273
:103DD00011242F933F934F935F936F937F938F9310
:103DE0009F93AF93BF93EF93FF93DF93CF93CDB7A1
:103DF000DEB76C97DEBFCDBF80917201813009F0D4
:103E000087C01092720180917401909175010196A2
:103E10009093750180937401E2E3F0E08081882F34
:103E200090E0887090700097B9F780E090E0AAEF7A
:103E3000B3E4898F9A8FAB8FBC8F698D7A8D8B8D10
:103E40009C8D20E030E04AE755E40E941F02DC012F
:103E5000CB018D8B9E8BAF8BB88F6D897E898F89BF
:103E6000988D20E030E040E85FE30E94250488233D
:103E70002CF481E090E09C8B8B8B3FC06D897E8918
:103E80008F89988D20E03FEF4FE757E40E94C503EC
:103E900018164CF5698D7A8D8B8D9C8D20E030E065
:103EA00040E251E40E941F02DC01CB01BC01CD01C4
:103EB0000E944900DC01CB019C8B8B8B0FC080E9F9
:103EC00091E09A8B898B89899A890197F1F79A8B6E
:103ED000898B8B899C8901979C8B8B8B8B899C8987
:103EE000009769F718C06D897E898F89988D0E9427
:103EF0004900DC01CB019C8B8B8B8B899C89988B37
:103F00008F878F8598890197F1F7988B8F8703C0EA
:103F100081E08093730180E090E0A0E2B1E48B87C0
:103F20009C87AD87BE876B857C858D859E8520E0CF
:103F300030E04AE755E40E941F02DC01CB018F8389
:103F40009887A987BA876F81788589859A8520E0C7
:103F500030E040E85FE30E94250488232CF481E0F0
:103F600090E09E838D833FC06F81788589859A8597
:103F700020E03FEF4FE757E40E94C50318164CF5C9
:103F80006B857C858D859E8520E030E040E251E4A4
:103F90000E941F02DC01CB01BC01CD010E9449003F
:103FA000DC01CB019E838D830FC080E991E09C836F
:103FB0008B838B819C810197F1F79C838B838D810F
:103FC0009E8101979E838D838D819E81009769F7E5
:103FD00014C06F81788589859A850E944900DC012B
:103FE000CB019E838D838D819E819A838983898174
:103FF0009A810197F1F79A8389836C96DEBFCDBFD2
:10400000CF91DF91FF91EF91BF91AF919F918F91F0
:104010007F916F915F914F913F912F910F900FBEC4
:104020000F901F901895DF93CF930F92CDB7DEB707
:10403000898381E060E041E00E94B70881E061E0AF
:1040400041E00E94B70881E062E041E00E94B708C9
:1040500081E064E041E00E94B7088981982F917067
:1040600081E060E0492F0E94A2098981882F90E0B9
:104070008270907095958795982F81E061E0492F27
:104080000E94A2098981882F90E084709070959594
:10409000879595958795982F81E062E0492F0E943A
:1040A000A2098981882F90E08870907095958795F6
:1040B0009595879595958795982F81E064E0492F90
:1040C0000E94A2090F90CF91DF910895A1E21A2ECC
:1040D000AA1BBB1BFD010DC0AA1FBB1FEE1FFF1FAC
:1040E000A217B307E407F50720F0A21BB30BE40BFC
:1040F000F50B661F771F881F991F1A9469F7609543
:104100007095809590959B01AC01BD01CF010895FC
:104110002F923F924F925F926F927F928F929F92D7
:10412000AF92BF92CF92DF92EF92FF920F931F93C5
:10413000CF93DF93CDB7DEB7CA1BDB0B0FB6F89476
:10414000DEBF0FBECDBF09942A88398848885F84B6
:104150006E847D848C849B84AA84B984C884DF8027
:10416000EE80FD800C811B81AA81B981CE0FD11D0B
:104170000FB6F894DEBF0FBECDBFED010895FB0171
:104180009F01E8944230C4F04532B4F44A3029F437
:1041900097FB1EF4909581959F4F642F77270E947F
:1041A000F020805D8A330CF0895D8193CB0100970C
:1041B000A1F716F45DE251931082C9010C94E0203E
:1041C000DC01FC01672F71917723E1F7329704C07E
:1041D0007C916D9370836291AE17BF07C8F3089509
:1041E000AA1BBB1B51E107C0AA1FBB1FA617B7071D
:1041F00010F0A61BB70B881F991F5A95A9F7809539
:0C4200009095BC01CD010895F894FFCF0B
:10420C000000000000000000000102020303030391
:10421C00040404040404040405050505050505054A
:10422C00050505050505050506060606060606062A
:10423C000606060606060606060606060606060612
:10424C0006060606060606060707070707070707FA
:10425C0007070707070707070707070707070707E2
:10426C0007070707070707070707070707070707D2
:10427C0007070707070707070707070707070707C2
:10428C0007070707070707070808080808080808AA
:10429C000808080808080808080808080808080892
:1042AC000808080808080808080808080808080882
:1042BC000808080808080808080808080808080872
:1042CC000808080808080808080808080808080862
:1042DC000808080808080808080808080808080852
:1042EC000808080808080808080808080808080842
:1042FC000808080808080808080808080808080832
:10430C0008080808080808080000038025000001B8
:02431C00070098
:00000001FF
